{
  "transactions": [
    {
      "hash": "0xa58db2d524554a4935914585c551a24937d0d8dfc1d499f33ab3b69133dae745",
      "transactionType": "CALL",
      "contractName": null,
      "contractAddress": "0x779877a7b0d9e8603169ddbd7836e478b4624789",
      "function": "transferAndCall(address,uint256,bytes)",
      "arguments": [
        "0x9DdfaCa8183c41ad55329BdeeD9F6A8d53168B1B",
        "3000000000000000000",
        "0x3dab08012559e0eb7c28d07e80cf24537e3e5b76d26515bafe6e540ea102934d"
      ],
      "transaction": {
        "from": "0x349cc0460b5bfba5a3ea143d8100df60b7f0d620",
        "to": "0x779877a7b0d9e8603169ddbd7836e478b4624789",
        "gas": "0x1c1ff",
        "value": "0x0",
        "input": "0x4000aea00000000000000000000000009ddfaca8183c41ad55329bdeed9f6a8d53168b1b00000000000000000000000000000000000000000000000029a2241af62c0000000000000000000000000000000000000000000000000000000000000000006000000000000000000000000000000000000000000000000000000000000000203dab08012559e0eb7c28d07e80cf24537e3e5b76d26515bafe6e540ea102934d",
        "nonce": "0x5",
        "chainId": "0xaa36a7"
      },
      "additionalContracts": [],
      "isFixedGasLimit": false
    }
  ],
  "receipts": [
    {
      "status": "0x1",
      "cumulativeGasUsed": "0x7903f9",
      "logs": [
        {
          "address": "0x779877a7b0d9e8603169ddbd7836e478b4624789",
          "topics": [
            "0xddf252ad1be2c89b69c2b068fc378daa952ba7f163c4a11628f55a4df523b3ef",
            "0x000000000000000000000000349cc0460b5bfba5a3ea143d8100df60b7f0d620",
            "0x0000000000000000000000009ddfaca8183c41ad55329bdeed9f6a8d53168b1b"
          ],
          "data": "0x00000000000000000000000000000000000000000000000029a2241af62c0000",
          "blockHash": "0x49c19b0983cfe157d3183f6af9cd12c94cb38679f4b6e58f3aaec3a043600293",
          "blockNumber": "0x88c40f",
          "blockTimestamp": "0x689a3ffc",
          "transactionHash": "0xa58db2d524554a4935914585c551a24937d0d8dfc1d499f33ab3b69133dae745",
          "transactionIndex": "0x4f",
          "logIndex": "0xa2",
          "removed": false
        },
        {
          "address": "0x779877a7b0d9e8603169ddbd7836e478b4624789",
          "topics": [
            "0xe19260aff97b920c7df27010903aeb9c8d2be5d310a2c67824cf3f15396e4c16",
            "0x000000000000000000000000349cc0460b5bfba5a3ea143d8100df60b7f0d620",
            "0x0000000000000000000000009ddfaca8183c41ad55329bdeed9f6a8d53168b1b"
          ],
          "data": "0x00000000000000000000000000000000000000000000000029a2241af62c0000000000000000000000000000000000000000000000000000000000000000004000000000000000000000000000000000000000000000000000000000000000203dab08012559e0eb7c28d07e80cf24537e3e5b76d26515bafe6e540ea102934d",
          "blockHash": "0x49c19b0983cfe157d3183f6af9cd12c94cb38679f4b6e58f3aaec3a043600293",
          "blockNumber": "0x88c40f",
          "blockTimestamp": "0x689a3ffc",
          "transactionHash": "0xa58db2d524554a4935914585c551a24937d0d8dfc1d499f33ab3b69133dae745",
          "transactionIndex": "0x4f",
          "logIndex": "0xa3",
          "removed": false
        },
        {
          "address": "0x9ddfaca8183c41ad55329bdeed9f6a8d53168b1b",
          "topics": [
            "0x1ced9348ff549fceab2ac57cd3a9de38edaaab274b725ee82c23e8fc8c4eec7a",
            "0x3dab08012559e0eb7c28d07e80cf24537e3e5b76d26515bafe6e540ea102934d"
          ],
          "data": "0x000000000000000000000000000000000000000000000000000000000000000000000000000000000000000000000000000000000000000029a2241af62c0000",
          "blockHash": "0x49c19b0983cfe157d3183f6af9cd12c94cb38679f4b6e58f3aaec3a043600293",
          "blockNumber": "0x88c40f",
          "blockTimestamp": "0x689a3ffc",
          "transactionHash": "0xa58db2d524554a4935914585c551a24937d0d8dfc1d499f33ab3b69133dae745",
          "transactionIndex": "0x4f",
          "logIndex": "0xa4",
          "removed": false
        }
      ],
      "logsBloom": "0x00000004000000000000010000000000000000000020000000000000020000000000000000000000000000000000080000000000000000000000000000000000000000000000000000000008000000000000000000000000000020000020000408000000000000000000000000000000000000000000000000000010000040000000000000000000000000010000800000000020000000000000000000000000000000000000000000000000010000000000000000000000000004000000000000000002000000000000000000000000000020000000000140000000000000000010000000000000800000000000000000800000000000000000000000000000",
      "type": "0x2",
      "transactionHash": "0xa58db2d524554a4935914585c551a24937d0d8dfc1d499f33ab3b69133dae745",
      "transactionIndex": "0x4f",
      "blockHash": "0x49c19b0983cfe157d3183f6af9cd12c94cb38679f4b6e58f3aaec3a043600293",
      "blockNumber": "0x88c40f",
      "gasUsed": "0x133b1",
      "effectiveGasPrice": "0x137dd68",
      "from": "0x349cc0460b5bfba5a3ea143d8100df60b7f0d620",
      "to": "0x779877a7b0d9e8603169ddbd7836e478b4624789",
      "contractAddress": null
    }
  ],
  "libraries": [],
  "pending": [],
  "returns": {},
  "timestamp": 1754939388,
  "chain": 11155111,
  "commit": null
}